:020000040000FA
:060000006FEF1AF0120080
:02082A000000CC
:04082C00D9CFE6FF3B
:10083000E1CFD9FF2D0EE126D950F50FE96EFF0E5D
:10084000DA20EA6EEE50ED1015E0F70EDBCF02F085
:10085000F80EDBCF03F0F50EDB50025C006EF60EF7
:10086000DB500358016E0006000E015A2A0E00C02C
:10087000DBFF06D0F70EDB50E76E2A0EE7CFDBFF7B
:10088000100EE66EE66AE66AD9501A0FE66E000EA2
:10089000DA20E66E7EEC16F0006E050EE15E00508A
:1008A000010EF36E040EF3CFDBFF050EDB6A060EBE
:1008B000DB6A070EDB6AF90EDBCF29F0FA0EDBCF1D
:1008C0002AF0FB0EDBCF2BF0FC0EDBCF2CF008EC7C
:1008D00012F028C0DEFF29C0DEFF2AC0DEFF2BC0D9
:1008E000DDFFDD52DD52D9500A0FE66E000EDA2030
:1008F000E66ED9CFE9FFDACFEAFFEECFE6FFEECF23
:10090000E6FFEECFE6FFEFCFE6FFA9EC15F0006EB5
:10091000060EE15E0050D9500A0FE66E000EDA2096
:10092000E66ED8EC16F0E552E5522B0EF3CFDBFF66
:100930002C0EF4CFDBFF2B0EDBCF00F02A0EDB50AA
:10094000E76E0018E8AE02D0E73402D0E750005C52
:1009500001E3A9D0080EDB6A090EDB6A080EDBCFC3
:1009600000F0090EDBCF01F02A0EDBCF04F0056AA0
:1009700004BE05682B0EDB50045C026E2C0EDB50AF
:100980000558036E01500318E8AE02D0033404D0BA
:100990000250005C0350015815E2D950120F006E4E
:1009A000DACF01F0080EDB500024E96E090EDB50AF
:1009B0000120EA6E200EEF6E080EDB2A090E01E31D
:1009C000DB2ACCD7F90EDBCF00F0FA0EDBCF01F03B
:1009D000FB0EDBCF02F0FC0EDBCF03F02E6A2F6A9A
:1009E000306A316A00C029F001C02AF002C02BF041
:1009F00003C02CF048EC12F0010A34E1F90EDBCF11
:100A000004F0FA0EDBCF05F0FB0EDBCF06F0FC0E98
:100A1000DBCF07F02E6A2F6A800E306EBF0E316E6C
:100A200004C029F005C02AF006C02BF007C02CF046
:100A30003FEC12F0010A16E1D950120F006EDACF26
:100A400001F0080EDBCF02F0090EDBCF03F0020647
:100A5000000E035A00500224E96E01500320EA6E92
:100A60002D0EEF6ED950120F006EDACF01F0080E86
:100A7000DB500024E96E090EDB500120EA6EEF6ABC
:100A8000D950120FE66E000EDA20E66ED9501A0F1A
:100A9000E66E000EDA20E66E98EC16F0E552E552AE
:100AA000E552E55241D0F90EDBCF00F0FA0EDBCF74
:100AB00001F0FB0EDBCF02F0FC0EDBCF03F02E6A61
:100AC0002F6A306A316A00C029F001C02AF002C0E2
:100AD0002BF003C02CF048EC12F0010A25E1F90ECE
:100AE000DBCF04F0FA0EDBCF05F0FB0EDBCF06F018
:100AF000FC0EDBCF07F02E6A2F6A800E306EBF0E21
:100B0000316E04C029F005C02AF006C02BF007C0E2
:100B10002CF03FEC12F0010A07E12D0EF36E1A0ED5
:100B2000F3CFDBFF1B0EDB6AD9500A0FE66E000E17
:100B3000DA20E66ED9501A0FE66E000EDA20E66E65
:100B400098EC16F0E552E552E552E552D950F50F12
:100B5000E96EFF0EDA20EA6EEE50ED1001E13FD2B1
:100B60002F0E006E350E016E026A00C0E6FF01C056
:100B7000E6FF02C0E6FFD9501A0FE66E000EDA203B
:100B8000E66EBCEC16F0036E050EE15E0350F50E4A
:100B9000DBCF2AF0F60EDBCF2BF0050E2A1801E191
:100BA0002B504BE0040E2A1801E12B5037E0030EC6
:100BB0002A1801E12B5023E0020E2A1801E12B50E4
:100BC00012E0010E2A1801E12B5001E048D00A0E74
:100BD000F36E040EF3CFDBFF050EDB6A060EDB6A55
:100BE000070EDB6A3CD0640EF36E040EF3CFDBFF1E
:100BF000050EDB6A060EDB6A070EDB6A30D0E80EF4
:100C0000F36E040EF3CFDBFF030EF36E050EF3CF8E
:100C1000DBFF060EDB6A070EDB6A21D0100EF36ED7
:100C2000040EF3CFDBFF270EF36E050EF3CFDBFFD1
:100C3000060EDB6A070EDB6A12D0A00EF36E040EFE
:100C4000F3CFDBFF860EF36E050EF3CFDBFF010E55
:100C5000F36E060EF3CFDBFF070EDB6A00D0F90E52
:100C6000DBCF00F0FA0EDBCF01F0FB0EDBCF02F0A2
:100C7000FC0EDBCF03F0F90EDBCF29F0FA0EDBCF51
:100C80002AF0FB0EDBCF2BF0FC0EDBCF2CF0D9ECE7
:100C900011F054EC10F029C004F02AC005F02BC06C
:100CA00006F02CC007F004C02EF005C02FF006C0DF
:100CB00030F007C031F000C029F001C02AF002C0B6
:100CC0002BF003C02CF082EC10F0F90E29C0DBFFF2
:100CD000FA0E2AC0DBFFFB0E2BC0DBFFFC0E2CC084
:100CE000DBFFF90EDBCF00F0FA0EDBCF01F0FB0EDD
:100CF000DBCF02F0FC0EDBCF03F02E6A2F6A306AE6
:100D0000316A00C029F001C02AF002C02BF003C0F4
:100D10002CF048EC12F0010A27E0006A016A800E0C
:100D2000026E3F0E036ED950F90FE96EFF0EDA2006
:100D3000EA6EEECF29F0EECF2AF0EECF2BF0EFCF18
:100D40002CF000C02EF001C02FF002C030F003C024
:100D500031F083EC10F02CC0EDFF2BC0EDFF2AC06A
:100D6000EDFF29C0EFFF26D0006A016A800E026EF7
:100D70003F0E036ED950F90FE96EFF0EDA20EA6ECE
:100D8000EECF29F0EECF2AF0EECF2BF0EFCF2CF004
:100D900000C02EF001C02FF002C030F003C031F0CF
:100DA00082EC10F02CC0EDFF2BC0EDFF2AC0EDFF50
:100DB00029C0EFFF040EDBCF04F0050EDBCF05F0FA
:100DC000060EDBCF06F0070EDBCF07F004C028F0DD
:100DD00005C029F006C02AF007C02BF069EC10F01E
:100DE00029C000F02AC001F02BC002F02CC003F093
:100DF000D950F90FE96EFF0EDA20EA6EEECF29F036
:100E0000EECF2AF0EECF2BF0EFCF2CF000C02EF07B
:100E100001C02FF002C030F003C031F06CEC11F0D3
:100E20002CC0EDFF2BC0EDFF2AC0EDFF29C0EFFF66
:100E3000F90EDBCF00F0FA0EDBCF01F0FB0EDBCFBB
:100E400002F0FC0EDBCF03F02E6A2F6A306A316AA3
:100E500000C029F001C02AF002C02BF003C02CF022
:100E600048EC12F0010A26E0006A016A026A3F0EAD
:100E7000036ED950F90FE96EFF0EDA20EA6EEECF5D
:100E800029F0EECF2AF0EECF2BF0EFCF2CF000C000
:100E90002EF001C02FF002C030F003C031F083EC1F
:100EA00010F02CC0EDFF2BC0EDFF2AC0EDFF29C0D4
:100EB000EFFF25D0006A016A026A3F0E036ED95027
:100EC000F90FE96EFF0EDA20EA6EEECF29F0EECFD1
:100ED0002AF0EECF2BF0EFCF2CF000C02EF001C0A7
:100EE0002FF002C030F003C031F082EC10F02CC0C3
:100EF000EDFF2BC0EDFF2AC0EDFF29C0EFFFF90E7B
:100F0000DBCF29F0FA0EDBCF2AF0FB0EDBCF2BF084
:100F1000FC0EDBCF2CF008EC12F028C0DEFF29C05D
:100F2000DEFF2AC0DEFF2BC0DDFFDD52DD52D9CF50
:100F3000E9FFDACFEAFFD890030EEB50000A08E68B
:100F4000000EEE5C000EEE58000EEE58000EEE584D
:100F50001CE2D9CFE9FFDACFEAFFEECF28F0EECFDF
:100F600029F0EECF2AF0EFCF2BF02D682E682F68F6
:100F70003068A1EC19F024C0DEFF25C0DEFF26C0DA
:100F8000DEFF27C0DDFFDD52DD52D9500A0FE66ECD
:100F9000000EDA20E66ED9CFE9FFDACFEAFFEECF16
:100FA000E6FFEECFE6FFEECFE6FFEFCFE6FFA9ECE0
:100FB00015F0006E060EE15E0050D9500B0FE66E84
:100FC000000EDA20E66ED9501A0FE66E000EDA2017
:100FD000E66E98EC16F0E552E552E552E552F70E52
:100FE000DBCFE6FFF80EDBCFE6FFD9501A0FE66E37
:100FF000000EDA20E66EFD0EDBCFE6FFFE0EDBCF45
:10100000E6FFE6EC16F0006E060EE15E0050F70E0D
:10101000DBCF00F0F80EDBCF01F0FD0EDB5000243B
:10102000E96EFE0EDB500120EA6EEF6A2D0EE15CE8
:1010300002E2E16AE552E16EE552E7CFD9FF120024
:10104000D9CFE6FFE1CFD9FF020EE126DE6ADD6AE5
:10105000DECF00F0DDCF01F0FD0EDBCF02F0FE0EA3
:10106000DBCF03F001500318E8AE02D0033404D004
:101070000250005C035001580AE2780EE66E7DECE7
:101080001AF0E552DF2A010E01E3DB2AE1D7020E56
:10109000E15C02E2E16AE552E16EE552E7CFD9FF99
:1010A00012004D0EE66EE66A2C0EE66E5CEC19F050
:1010B000E552E552E5521200819A938A93988A98F4
:1010C00070D974EF08F0938A8A9800008A8800002B
:1010D000939A00008A980000000000008A880000AF
:1010E000938A00008A981200D9CFE6FFE1CFD9FF9A
:1010F000E652938A8A98DF6A0F0EDF5C04E28A88E0
:101100008A98DF2AF9D7DFDFE552E552E7CFD9FF2A
:101110001200D9CFE6FFE1CFD9FF020EE126010E82
:10112000DB6A800EDF6EDF5000080FE2FE0EDB5040
:10113000DF1402E0938A01D0939A8A8800000000AD
:1011400000008A98DF90DF42EED7938A8A88815028
:10115000200B01E0010EE76E010EE7CFDBFF000080
:101160008A98010EDB5000D0006E020EE15C02E2B4
:10117000E16AE552E16E0050E552E7CFD9FF120077
:10118000D9CFE6FFE1CFD9FF040EE126010EDB6ADD
:10119000010EF36E020EF3CFDBFF030EDB6A938AC0
:1011A000800EDF6EDF50000814E28A88010EE66EC2
:1011B000E66A46DFE552E55281AA07D0010EDB5010
:1011C000DF10E76E010EE7CFDBFF8A98DF90DF428A
:1011D000E9D7FE0EDB5002E0000E01D0010EE8B0B0
:1011E000938AE8A0939A8A880000000000008A98F9
:1011F000938A010EDB5000D0006E040EE15C02E227
:10120000E16AE552E16E0050E552E7CFD9FF1200E6
:10121000D9CFE6FFE1CFD9FFE652DF6A54DF070EF0
:10122000E66E77DFE552DF6E010EE66EA9DFE5526E
:10123000E66EFD0EDBCFE9FFFE0EDBCFEAFFE552E7
:10124000E750EF6EE66A9CDFE552E66EFB0EDBCF01
:10125000E9FFFC0EDBCFEAFFE552E750EF6EDF500F
:1012600000D0E552E552E7CFD9FF1200D9CFE6FF13
:10127000E1CFD9FFE652DF6A26DF060EE66E49DFD0
:10128000E552DF26FD0EDBCFE9FFFE0EDBCFEAFFE6
:10129000EF50E66E3EDFE552DF26DF5000D0E5522C
:1012A000E552E7CFD9FF1200D9CFE6FFE1CFD9FF52
:1012B000050EE126DF6A07DFFA0EDB50010A09E0BE
:1012C000010A01E00CD0030EE66E23DFE552DF26B3
:1012D00006D0050EE66E1DDFE552DF2600D0010EBA
:1012E000DB6A020EDB6A030EDB6A040EDB6AD9508E
:1012F000010FE96EDACFEAFFFF0EEE5CFF0EEE584B
:10130000FF0EEE58000EEE580DE281AA0BD0D95018
:10131000010FE96EDACFEAFFEE2A000EEE22EE228E
:10132000EE22E5D781BADF2A010EE66E29DFE5520B
:10133000E66E010EE76EFD0EDBCFE9FFFE0EDBCFA2
:10134000EAFFE750E926000EEA22E552E750EF6E89
:10135000010EE66E15DFE552E66EFD0EDBCFE9FF0E
:10136000FE0EDBCFEAFFE552E750EF6EE66A08DFDC
:10137000E552E66EFB0EDBCFE9FFFC0EDBCFEAFFAA
:10138000E552E750EF6EDF50006E050EE15C03E2C0
:1013900000D0E16AE552E16E0050E552E7CFD9FF97
:1013A0001200D9CFE6FFE1CFD9FFE652DF6A9CDE1B
:1013B0001E0EE66EAEDEE552DF26C80EE66E31EC9E
:1013C0001AF0E552DF5000D0E552E552E7CFD9FFE1
:1013D0001200D9CFE6FFE1CFD9FF280EE126DE6A61
:1013E000DE6A800EDE6EC00EDD6EDD52DD52540E02
:1013F000F36E040EF3CFDBFFE30EF36E050EF3CFB7
:10140000DBFF250EF36E060EF3CFDBFF3D0EF36E12
:10141000070EF3CFDBFFA20EF36E080EF3CFDBFF58
:10142000E70EF36E090EF3CFDBFF3B0EF36E0A0EF1
:10143000F3CFDBFFB60EF36E0B0EF3CFDBFF0A0E1E
:10144000F36E0C0EF3CFDBFFD70EF36E0D0EF3CF62
:10145000DBFF230EF36E0E0EF3CFDBFF3C0EF36EBD
:101460000F0EF3CFDBFFAC0EF36E100EF3CFDBFFEE
:10147000C50EF36E110EF3CFDBFFA70EF36E120E47
:10148000F3CFDBFF380EF36E130EF3CFDBFFFD0E51
:10149000DBCFE9FFFE0EDBCFEAFF140EEECFDBFF62
:1014A000150EEECFDBFF160EEECFDBFF170EEECFE5
:1014B000DBFFFB0EDBCFE9FFFC0EDBCFEAFF180EF4
:1014C000EECFDBFF190EEECFDBFF1A0EEECFDBFF08
:1014D0001B0EEECFDBFF180EDBCF04F0190EDBCFB7
:1014E00005F01A0EDBCF06F01B0EDBCF07F00A0E5D
:1014F0002E6ED70E2F6E230E306E3C0E316E04C052
:1015000029F005C02AF006C02BF007C02CF06CECC7
:1015100011F029C000F02AC001F02BC002F02CC04D
:1015200003F02E6A2F6A200E306E420E316E00C01C
:1015300029F001C02AF002C02BF003C02CF082EC8D
:1015400010F0240E29C0DBFF250E2AC0DBFF260E7B
:101550002BC0DBFF270E2CC0DBFF080EDBCF29F0F2
:10156000090EDBCF2AF00A0EDBCF2BF00B0EDBCF00
:101570002CF0140EDBCF2EF0150EDBCF2FF0160E55
:10158000DBCF30F0170EDBCF31F06CEC11F0140E26
:10159000DBCF2EF0150EDBCF2FF0160EDBCF30F0A9
:1015A000170EDBCF31F06CEC11F029C004F02AC02B
:1015B00005F02BC006F02CC007F0040EDBCF29F09D
:1015C000050EDBCF2AF0060EDBCF2BF0070EDBCFAC
:1015D0002CF0140EDBCF2EF0150EDBCF2FF0160EF5
:1015E000DBCF30F0170EDBCF31F06CEC11F029C0FF
:1015F00008F02AC009F02BC00AF02CC00BF008C07C
:101600002EF009C02FF00AC030F00BC031F004C03A
:1016100029F005C02AF006C02BF007C02CF083EC9F
:1016200010F029C000F02AC001F02BC002F02CC03D
:1016300003F0D9CFE9FFDACFEAFFEECF0CF0EECF1F
:101640000DF0EECF0EF0EFCF0FF00CC02EF00DC06E
:101650002FF00EC030F00FC031F000C029F001C0F3
:101660002AF002C02BF003C02CF083EC10F01C0E0B
:1016700029C0DBFF1D0E2AC0DBFF1E0E2BC0DBFFC7
:101680001F0E2CC0DBFF240EDBCF08F0250EDBCFB6
:1016900009F0260EDBCF0AF0270EDBCF0BF02E6A07
:1016A0002F6AC80E306E410E316E08C029F009C095
:1016B0002AF00AC02BF00BC02CF082EC10F029C0ED
:1016C00004F02AC005F02BC006F02CC007F00C0E69
:1016D000DBCF10F00D0EDBCF11F00E0EDBCF12F0D2
:1016E0000F0EDBCF13F0100EDBCF29F0110EDBCF86
:1016F0002AF0120EDBCF2BF0130EDBCF2CF0140EE2
:10170000DBCF2EF0150EDBCF2FF0160EDBCF30F037
:10171000170EDBCF31F06CEC11F029C014F02AC0A9
:1017200015F02BC016F02CC017F014C02EF015C009
:101730002FF016C030F017C031F010C029F011C0E2
:101740002AF012C02BF013C02CF083EC10F029C04B
:101750000CF02AC00DF02BC00EF02CC00FF00CC006
:101760002EF00DC02FF00EC030F00FC031F004C0CD
:1017700029F005C02AF006C02BF007C02CF06CEC55
:1017800011F029C000F02AC001F02BC002F02CC0DB
:1017900003F01C0EDBCF18F01D0EDBCF19F01E0E70
:1017A000DBCF1AF01F0EDBCF1BF018C02EF019C0D4
:1017B0002FF01AC030F01BC031F000C029F001C07A
:1017C0002AF002C02BF003C02CF083EC10F0200EA6
:1017D00029C0DBFF210E2AC0DBFF220E2BC0DBFF5E
:1017E000230E2CC0DBFF200EDBCF00F0210EDBCF61
:1017F00001F0220EDBCF02F0230EDBCF03F02E6AC6
:101800002F6AC80E306E420E316E00C029F001C042
:101810002AF002C02BF003C02CF03FEC12F0010ABA
:101820000EE1200EDB6A210EDB6AC80EF36E220E7B
:10183000F3CFDBFF420EF36E230EF3CFDBFF200E60
:10184000DBCF00F0210EDBCF01F0220EDBCF02F068
:10185000230EDBCF03F0CD0E2E6ECC0E2F6E306E2E
:101860003D0E316E00C029F001C02AF002C02BF0FD
:1018700003C02CF048EC12F0010A14E1CD0EF36E17
:10188000200EF3CFDBFFCC0EF36E210EF3CFDBFF88
:10189000CC0EF36E220EF3CFDBFF3D0EF36E230E64
:1018A000F3CFDBFFFB0EDBCFE9FFFC0EDBCFEAFF64
:1018B000240EDBCFEEFF250EDBCFEEFF260EDBCFB7
:1018C000EEFF270EDBCFEEFFFD0EDBCFE9FFFE0EB6
:1018D000DBCFEAFF200EDBCFEEFF210EDBCFEEFFEA
:1018E000220EDBCFEEFF230EDBCFEEFF280EE15CF6
:1018F00002E2E16AE552E16EE552E7CFD9FF12005C
:10190000D9CFE6FFE1CFD9FF080EE126390E046EEC
:10191000280E056E290E066E3F0E076E296A2A6A8A
:10192000F00E2B6E400E2C6EF70EDBCF2EF0F80E65
:10193000DBCF2FF0F90EDBCF30F0FA0EDBCF31F03A
:101940006CEC11F029C00CF02AC00DF02BC00EF089
:101950002CC00FF0CD0E146E4C0E156E6D0E166E63
:10196000430E176EF70EDBCF18F0F80EDBCF19F031
:10197000F90EDBCF1AF0FA0EDBCF1BF018C02EF0F9
:1019800019C02FF01AC030F01BC031F014C029F07C
:1019900015C02AF016C02BF017C02CF083EC10F005
:1019A00029C010F02AC011F02BC012F02CC013F087
:1019B00010C02EF011C02FF012C030F013C031F063
:1019C0000CC029F00DC02AF00EC02BF00FC02CF077
:1019D00019EC11F029C008F02AC009F02BC00AF058
:1019E0002CC00BF008C02EF009C02FF00AC030F058
:1019F0000BC031F004C029F005C02AF006C02BF05E
:101A000007C02CF083EC10F029C000F02AC001F0D0
:101A10002BC002F02CC003F000C0E6FF01C0E6FFBF
:101A200002C0E6FF03C0E6FFD950FB0FE96EFF0ED0
:101A3000DA20EA6EEECFE6FFEECFE6FFEECFE6FF6E
:101A4000EFCFE6FF10EC19F0E552E552E552E55212
:101A5000E552E7CF03F0E552E7CF02F0E552E7CFDA
:101A600001F0E552E7CF00F028C020F029C021F0B6
:101A70002AC022F02BC023F02E6A2F6A306A400E53
:101A8000316E20C029F021C02AF022C02BF023C0E3
:101A90002CF082EC10F029C01CF02AC01DF02BC0E5
:101AA0001EF02CC01FF01CC02EF01DC02FF01EC059
:101AB00030F01FC031F000C029F001C02AF002C090
:101AC0002BF003C02CF083EC10F029C0DEFF2AC0FD
:101AD000DEFF2BC0DEFF2CC0DDFFDD52DD52D9CF93
:101AE000E9FFDACFEAFFEECF08F0EECF09F0EECF54
:101AF0000AF0EFCF0BF0390E2E6E280E2F6E290E46
:101B0000306E3F0E316E08C029F009C02AF00AC0BD
:101B10002BF00BC02CF082EC10F029C004F02AC08E
:101B200005F02BC006F02CC007F0CD0E2E6E4C0E2B
:101B30002F6E6D0E306E430E316E04C029F005C05D
:101B40002AF006C02BF007C02CF06CEC11F029C075
:101B500000F02AC001F02BC002F02CC003F0840E6C
:101B6000106E920E116E020E126E410E136ED9CFD0
:101B7000E9FFDACFEAFFEECF14F0EECF15F0EECFAB
:101B800016F0EFCF17F014C02EF015C02FF016C0CE
:101B900030F017C031F010C029F011C02AF012C087
:101BA0002BF013C02CF082EC10F029C00CF02AC0EE
:101BB0000DF02BC00EF02CC00FF00CC02EF00DC09D
:101BC0002FF00EC030F00FC031F000C029F001C07E
:101BD0002AF002C02BF003C02CF019EC11F0040E17
:101BE00029C0DBFF050E2AC0DBFF060E2BC0DBFF82
:101BF000070E2CC0DBFF040EDBCF00F0050EDBCFA1
:101C000001F0060EDBCF02F0070EDBCF03F000C0C1
:101C100028F001C029F002C02AF003C02BF0080E02
:101C2000E15C03E200D0E16AE552E16EE552E7CF04
:101C3000D9FF1200D9CFE6FFE1CFD9FF2E0EE12662
:101C400051EC08F05CEC08F074EC08F0230E006E28
:101C5000350E016E026A00C0E6FF01C0E6FF02C059
:101C6000E6FFD9EC19F0E552E552E552010EE66EB9
:101C7000D950010FE66E000EDA20E66ED950040F3F
:101C8000E66E000EDA20E66E54EC09F0006E050EEA
:101C9000E15E0050DF26DF6AE66AD950010FE66E8A
:101CA000000EDA20E66ED950020FE66E000EDA2042
:101CB000E66E54EC09F0006E050EE15E0050DF2682
:101CC000DF5013E01D0E006E350E016E026A00C07B
:101CD000E6FF01C0E6FF02C0E6FFD9EC19F0E552CD
:101CE000E552E55274EC08F0CAD1040EDBCF2AF0BD
:101CF000050EDBCF2BF052EC10F0220E29C0DBFFDB
:101D0000230E2AC0DBFF240E2BC0DBFF250E2CC0C8
:101D1000DBFF020EDBCF2AF0030EDBCF2BF052EC01
:101D200010F0260E29C0DBFF270E2AC0DBFF280E8D
:101D30002BC0DBFF290E2CC0DBFFD950260FE66E2F
:101D4000000EDA20E66ED950220FE66E000EDA2081
:101D5000E66EE9EC09F0E552E552E552E552660E11
:101D6000296E2A6EE60E2B6E3F0E2C6E260EDBCFF2
:101D70002EF0270EDBCF2FF0280EDBCF30F0290E10
:101D8000DBCF31F06CEC11F029C000F02AC001F07B
:101D90002BC002F02CC003F02E6A2F6A306A420E6C
:101DA000316E00C029F001C02AF002C02BF003C040
:101DB0002CF083EC10F02A0E29C0DBFF2B0E2AC07A
:101DC000DBFF2C0E2BC0DBFF2D0E2CC0DBFFD95010
:101DD000260FE96EDACFEAFFEECFE6FFEECFE6FFA1
:101DE000EECFE6FFEFCFE6FFD950220FE96EDACF54
:101DF000EAFFEECFE6FFEECFE6FFEECFE6FFEFCF56
:101E0000E6FF7EDD006E080EE15E0050060E28C083
:101E1000DBFF070E29C0DBFF080E2AC0DBFF090E1F
:101E20002BC0DBFF010EE66EE66A040EE66EE66A84
:101E3000D9502A0FE96EDACFEAFFEECFE6FFEECFF8
:101E4000E6FFEECFE6FFEFCFE6FFD9500A0FE66ED2
:101E5000000EDA20E66E16EC04F0006E0A0EE15E6B
:101E60000050D9500A0FE66E000EDA20E66E0BEC39
:101E70001AF0E552E552F80EE66E48EC1AF0E5521B
:101E80001B0E006E350E016E026A00C0E6FF01C037
:101E9000E6FF02C0E6FFD9EC19F0E552E552E55243
:101EA000180E006E350E016E026A00C0E6FF01C01A
:101EB000E6FF02C0E6FFD9EC19F0E552E552E55223
:101EC000010EE66EE66A040EE66EE66AD950220F4F
:101ED000E96EDACFEAFFEECFE6FFEECFE6FFEECF18
:101EE000E6FFEFCFE6FFD950120FE66E000EDA20C4
:101EF000E66E16EC04F0006E0A0EE15E0050D9505A
:101F0000120FE66E000EDA20E66E0BEC1AF0E552C8
:101F1000E552160E006E350E016E026A00C0E6FF35
:101F200001C0E6FF02C0E6FFD9EC19F0E552E55228
:101F3000E552180E006E350E016E026A00C0E6FF13
:101F400001C0E6FF02C0E6FFD9EC19F0E552E55208
:101F5000E552660E296E2A6EE60E2B6E3F0E2C6E33
:101F6000060EDBCF2EF0070EDBCF2FF0080EDBCFF7
:101F700030F0090EDBCF31F06CEC11F029C000F02D
:101F80002AC001F02BC002F02CC003F02E6A2F6A89
:101F9000306A420E316E00C029F001C02AF002C042
:101FA0002BF003C02CF083EC10F0060E29C0DBFFF1
:101FB000070E2AC0DBFF080E2BC0DBFF090E2CC06A
:101FC000DBFF010EE66EE66A040EE66EE66AD950A5
:101FD000060FE96EDACFEAFFEECFE6FFEECFE6FFBF
:101FE000EECFE6FFEFCFE6FFD9501A0FE66E000EF8
:101FF000DA20E66E16EC04F0006E0A0EE15E005088
:10200000D9501A0FE66E000EDA20E66E0BEC1AF0CD
:10201000E552E552F80EE66E48EC1AF0E5521B0E5A
:10202000006E350E016E026A00C0E6FF01C0E6FFD9
:1020300002C0E6FFD9EC19F0E552E552E552180E60
:10204000006E350E016E026A00C0E6FF01C0E6FFB9
:1020500002C0E6FFD9EC19F0E552E552E552180E40
:10206000006E350E016E026A00C0E6FF01C0E6FF99
:1020700002C0E6FFD9EC19F0E552E552E552D00E68
:10208000E66E070EE66E20EC08F0E552E552EED55E
:102090002E0EE15C02E2E16AE552E16EE552E7CF25
:0420A000D9FF120052
:0C20A400339E08D0339E2BAE05D02A6C72
:1020B0002B1EE86A2B22338E2BC025F02AC024F079
:1020C000376A366A8E0E266E276AC2EF12F0339E8A
:1020D0000CD0339E2BAE09D0286C291E2A1E2B1E35
:1020E000E86A29222A222B22338E2BC025F02AC00F
:1020F00024F029C037F028C036F09E0E266E276ADD
:10210000C2EF12F0317E336AFEEC12F016EC13F0DF
:1021100033B6A6EF12F033A20AD033AA03D033BEEF
:10212000A6EF12F033A4B2EF12F0AFEF12F033AA21
:1021300005D033ACB2EF12F0AFEF12F033A00AD0FB
:1021400033A808D033BE04D033A402D0BBEF12F0C2
:10215000BFEF12F0366A276A31502C5C356E10E3FF
:1021600029C037F02AC024F02BC025F02CC034F051
:102170002EC029F02FC02AF030C02BF0333A09D0FE
:102180002EC037F02FC024F030C025F031C034F01D
:10219000356C339E33BC338E34C026F033B0EEEF53
:1021A00012F01A0E3560EEEF12F0266A2C6A33A494
:1021B00008D0296C2A1E2B1E2C1EE86A2A222B22EC
:1021C0002C2233AC08D0376C241E251E261EE86A4C
:1021D000242225222622286A355207E02C342B326D
:1021E0002A3229322832352EF9D7295037262A505B
:1021F00024222B5025222C50262228C036F0339E34
:1022000026AE0BD0366C371E241E251E261EE86A0D
:102210003722242225222622338E26A006D0D880DB
:102220002532243237323632342A34C026F0C2EF17
:1022300012F0336AFEEC12F016EC13F033B6A6EF90
:1022400012F033A205D033BAA6EF12F0ADEF12F0C0
:1022500033BAB9EF12F033A005D033B8A6EF12F0BD
:10226000B9EF12F033B8ADEF12F0276A7F0E2C24CD
:10227000266EE86A27223150265EE86A275A1A0E2F
:10228000346E2C6A366A376A246A256A2E50295EB3
:102290002F502A5A30502B5A000E2C5A09E72E5034
:1022A00029262F502A2230502B22000E2C2201D01A
:1022B000368AD89029362A362B362C36D8903636A0
:1022C000373624362536342EE1D72B502A102910E4
:1022D000D8A4368AC2EF12F0336AFEEC12F016EC84
:1022E00013F033B6A6EF12F033A205D033B8A6EF41
:1022F00012F0ADEF12F033AA05D033B0A6EF12F012
:10230000ADEF12F033B002D033A802D0B9EF12F023
:10231000276A31502C24266EE86A27227E0E265E1C
:10232000E86A275A366A376A246A256A30502B02CF
:10233000F4CF25F0F3CF24F02F502B02F3503726A3
:10234000F4502422000E252230502A02F350372662
:10235000F4502422000E25222E502B02F350362654
:10236000F4503722000E242225222F502A02F35047
:102370003626F4503722000E24222522305029021E
:10238000F3503626F4503722000E242225222E50F8
:102390002A02F4503626000E3722242225222F50FE
:1023A0002902F4503626000E372224222522C2EFBD
:1023B00012F0336AFEEC12F033B6E3EF11F033A201
:1023C0000ED033B405D07F0E2B6EFF0E2A6E1FD0B9
:1023D000800E2B6E2A6A1BD02B6A2A6A18D033B063
:1023E000FBD78F0E2C60EDD77E0E2C64F5D78E0EAA
:1023F0002C5C05E0D8902B322A322C2AF8D733A453
:1024000006D02A6C2B1EE86A2B222BAEE5D71200D1
:10241000336AFEEC12F033B612EF12F033A20FD093
:1024200033B407D07F0E2B6EFF0E2A6E296E286EF6
:1024300025D0800E2B6E01D02B6A000EF6D733B05C
:10244000FBD7286A9F0E2C60EBD77E0E2C64F4D746
:102450009E0E2C5C07E0D8902B322A32293228328B
:102460002C2AF6D733A40AD0286C291E2A1E2B1E2C
:10247000E86A29222A222B222BAEDED7120051EC49
:1024800012F033B6000C33B0000C33B4000C010C66
:1024900051EC12F033B6000C33B0000C33A4000C36
:1024A000010C336AFEEC12F016EC13F033B6120096
:1024B00033AE08D033A004D033A802D0338012004A
:1024C0003390120031502C5C0BE130502B5C08E152
:1024D0002F502A5C05E12E50295C02E13380120066
:1024E000D8A002D0338E10D02C5031C02CF0316ED9
:1024F0002B5030C02BF0306E2A502FC02AF02F6E98
:1025000029502EC029F02E6E31502C5C10E0FF0FA8
:1025100009E0339033B403D033AE3384120033AECA
:1025200033941200312AD89030322F322E322E506E
:10253000295E2F502A5A30502B5A2BBEEAD7D890FA
:1025400029362A362B362C2EF8D7C8D77F0E2C6E7C
:10255000FF0E2B6E2A6E296E12007F0E33BEFF0E09
:102560002C6E02D07F0E2C6E800E2B6E2A6A296A8A
:10257000F3D733AE04D0800E2C6E2B6AF7D72C6ABB
:102580002B6AF4D72550241037103610F8E027BEF8
:10259000F0D725BE0CD026502710EBE0D890363669
:1025A0003736243625362606D8A02706F2D72750F8
:1025B000D4E12628D2E036AE11D07F0E361402E1E7
:1025C00037A00CD0372AE86A2422252207E3D880D6
:1025D000253224323732262A2628BFE02650C9E089
:1025E00037C029F024C02AF025342B6E26302C6EFB
:1025F0002B322C9E33BE2C8EACEF12F02B362C36A9
:1026000002E33384337E06E133802C6A2B6A2A6A24
:10261000296A12002C2803E0D8802B321200D890AF
:102620002B3202E13382120033861200303631360B
:1026300002E3338C337E06E13388316A306A2F6AD5
:102640002E6A1200312803E0D88030321200D89070
:082650003032EAE1338A120086
:08265800D9CFE6FFDACFE6FF5F
:10266000E1CFD9FFE2CFDAFF260EE12402E3E168F1
:10267000E652E16ED950050FE1D9A6EC17F0006ED5
:10268000060EE15C02E2E16AE552E16E0050DF6EA7
:10269000800EDF5C05E00B0EDB5012E0DF0410E083
:1026A000210E00016A6F6B6B010EDB68020EDB68A6
:1026B000030EDB687F0EF36E040EF3CFDBFF8FD1CA
:1026C000040EDF5C0EE13EDA010EEECFDBFF020E00
:1026D000EECFDBFF030EEECFDBFF040EEECFDBFF12
:1026E0007ED1DF0410E1210E00016A6F6B6B010ED9
:1026F000DB6A020EDB6A800EF36E030EF3CFDBFFA4
:10270000040EDB686CD1D9500C0F98D914EC17F07B
:10271000006E060EE15C02E2E16AE552E16E0050F5
:10272000FA0E28C0DBFFFB0E29C0DBFFFC0E2AC01F
:10273000DBFFFD0E2BC0DBFFA6D9F30E2E6E040EC1
:102740002F6E350E306E3F0E87D93FEC12F0010A26
:1027500009E1B3D984D982EC10F067D9EDD984D9D5
:10276000ACD916D00C0EDB060D0E01E2DB068BD9C0
:102770002E6A2F6A306A3F0E6FD976D9160EDBCFDC
:1027800004F0170EDBCF05F0180EDBCF06F0190EA4
:1027900066D96CEC11F049D9CFD983EC10F01A0E40
:1027A00029C0DBFF1B0E2AC0DBFF1C0E2BC0DBFF8A
:1027B0001D0E2CC0DBFF160EDBCF29F0170EDBCF72
:1027C0002AF0180EDBCF2BF0190EDBCF2CF01A0EEF
:1027D000DBCF2EF01B0EDBCF2FF01C0EDBCF30F04B
:1027E0001D0EDBCF31F019EC11F01FD9120E29C0EC
:1027F000DBFF130E2AC0DBFF140E2BC0DBFF150E10
:102800002CC0DBFF4DD9120EDBCF2EF0130EDBCF29
:102810002FF0140EDBCF30F0150E62D90E0E29C04A
:10282000DBFF0F0E2AC0DBFF100E2BC0DBFF110EEB
:102830002CC0DBFF3D0EF36E1E0EF3CFDBFF7E0ED2
:10284000F36E1F0EF3CFDBFF0D0EF36E200EF3CFF2
:10285000DBFFBF0EF36E210EF3CFDBFF0E0EDBCFDF
:1028600000F00F0EDBCF01F0100EDBCF02F0110EE7
:10287000DBCF03F03A0E2E6E3F0E2F6ED40E306E6D
:10288000C00EEAD883EC10F0220E29C0DBFF230E25
:102890002AC0DBFF240E2BC0DBFF250E2CC0DBFF84
:1028A0000E0EDBCF29F00F0EDBCF2AF0100EDBCFA0
:1028B0002BF0110EDBCF2CF01E0EDBCF2EF01F0EF7
:1028C000DBCF2FF0200EDBCF30F0210E09D9220E06
:1028D000DBCF2EF0230EDBCF2FF0240EDBCF30F03A
:1028E000250EDBCF31F019EC11F007D9120EDBCF3A
:1028F00000F0130EDBCF01F0140EDBCF02F0150E4B
:10290000DBCF03F0CDD8010EDBCF2EF0020EDBCFF4
:102910002FF0030EDBCF30F0040EE2D829C004F014
:102920002AC005F02BC006F02CC007F078D8046A46
:10293000800E056E310E066E3F0E076EC9D829C097
:1029400008F02AC009F02BC00AF02CC00BF0CCD83C
:10295000E1D86CEC11F069D8830E146E800E156E00
:102960005E0E166EB90E176EB3D829C018F02AC0C5
:1029700019F02BC01AF02CC01BF0B6D814C029F0E7
:1029800015C02AF016C02BF017C02CF06CEC11F01B
:1029900029C010F02AC011F02BC012F02CC013F087
:1029A000010EDBCF1CF0020EDBCF1DF0030EDBCFE0
:1029B0001EF0040EDBCF1FF01CC02EF01DC02FF048
:1029C0001EC030F01FC031F083EC10F029C00CF0B5
:1029D0002AC00DF02BC00EF02CC00FF020D8010E35
:1029E000DBCF00F0020EDBCF01F0030EDBCF02F0F5
:1029F000040EDBCF03F000C028F001C029F002C0B4
:102A00002AF003C02BF0260EE15C02E2E16AE552F7
:102A1000E16EE552E5CFDAFFE7CFD9FF120064D8C7
:102A200082D883EC10F07DEF15F029C000F02AC0A9
:102A300001F02BC002F02CC003F01200E66E000E75
:102A4000DA20E66E7FD8EECFE6FFEECFE6FFEECFE0
:102A5000E6FFEFCFE6FF1200316E93EF15F0DBCF0C
:102A600007F06AD88AEF15F082EC10F0160E29C034
:102A7000DBFF170E2AC0DBFF180E2BC0DBFF190E81
:102A80002CC0DBFF1200FA0EDBCF00F0FB0EDBCF19
:102A900001F0FC0EDBCF02F0FD0EDBCF03F01200E5
:102AA000120EDBCF29F0130EDBCF2AF0140EDBCF92
:102AB0002BF0150EDBCF2CF01200FA0EDBCF04F05A
:102AC000FB0EDBCF05F0FC0EDBCF06F0FD0E120097
:102AD0000C0EDBCF2AF00D0EDBCF2BF054EF10F0F5
:102AE000DBCF31F06CEF11F029C02EF02AC02FF0AF
:102AF0002BC030F02CC031F01200010E29C0DBFFDA
:102B0000020E2AC0DBFF030E2BC0DBFF040E2CC01D
:102B1000DBFF120004C029F005C02AF006C02BF02C
:102B200007C02CF0120000C029F001C02AF002C03A
:102B30002BF003C02CF012002E6A2F6A306A3F0E71
:102B4000316E1200D950FA0FE96EFF0EDA20EA6EEC
:022B5000120071
:0E2B5200D9CFE6FFDACFE6FFF80EE3CFD9FFCA
:102B6000F90EE3CFDAFFFD0EE35215E72D0EDE6E10
:102B7000FA0EE31EFB0EE31EFC0EE31EFD0EE31E2B
:102B8000FA0EE32A08E1FB0EE32A05E1FC0EE32A34
:102B900002E1FD0EE32AE652E652E652E652E65222
:102BA000FB0EE124E76EFF0EE220E46EE652F30E28
:102BB000E3CFE6FFF30EE3CFE6FFF30EE3CFE6FF4E
:102BC000F30EE3CFE6FF46EC16F0F50EE124E96ED6
:102BD000FF0EE220EA6E33EC16F019E136EC16F047
:102BE00018E133EC16F017E136EC16F016E133EC91
:102BF00016F015E136EC16F014E133EC16F013E1A3
:102C000036EC16F012E133EC16F011E112D03CEC88
:102C100016F041EC16F03CEC16F041EC16F03CECF2
:102C200016F041EC16F03CEC16F041EC16F03CECE2
:102C300016F041EC16F0DE6AF50EE126FF0EE222F8
:102C4000FF0EE3CFDAFFE552FF0EE3CFD9FFE552E7
:102C5000FA0EE124E96EFF0EE220EA6EEECFF3FFFA
:102C6000EFCFF4FF1200EF380F0B1200EF500F0BF5
:102C700002E1EE52D8841200EF380F0B300FDE6EF7
:102C80001200EE500F0B300FDE6E1200FA0EE3CF83
:102C9000E9FFFB0EE3CFEAFF200EE66EEE6AEE6A76
:102CA000EE6AEE6AEF6AD890FB0EE336FC0EE3366E
:102CB000FD0EE336FE0EE336ED36ED36ED36ED363F
:102CC000EF36FF0EE3060FE075EC16F0EE5275ECF2
:102CD00016F0EE5275EC16F0EE5275EC16F0EE5260
:102CE00075EC16F0E1D7E56E1200030EEF24E8B69E
:0C2CF000EF6E300EEF24E8BEEF6E000C1B
:042CFC00FE0EE3CF16
:102D0000E9FFFF0EE3CFEAFFE9CFF3FFEACFF4FFDD
:102D1000FB0EE35003E1FC0EE35009E0FB0EE3067B
:102D200002E2FC0EE306FD0EE350EE6EF1D7120058
:102D3000D9CFE6FFDACFE6FFFA0EE3CFD9FFFB0EDD
:102D4000E3CFDAFFFC0EE3CFE9FFFD0EE3CFEAFFAE
:102D5000E9CFF3FFEACFF4FFEE66FED7ED52DFCF07
:102D6000EEFFDE66FCD7FF0EE3CFDAFFE552FF0E83
:102D7000E3CFD9FFE5521200FB0EE3CFF6FFFC0EC6
:102D8000E3CFF7FFFD0EE3CFF8FFFE0EE3CFE9FF41
:102D9000FF0EE3CFEAFFE9CFF3FFEACFF4FFEE66E1
:102DA000FED7ED520900F5CFEFFFEE66FBD712001C
:102DB000FE0EE3CFE9FFFF0EE3CFEAFFF36AF46A0A
:102DC000EE5203E0F34AF42AFBD71200D9CFE6FF14
:102DD000DACFE6FFFA0EE3CFD9FFFB0EE3CFDAFF3F
:102DE000FC0EE3CFE9FFFD0EE3CFEAFFE9CFF3FFEF
:102DF000EACFF4FFF80EE35003E1F90EE3500BE0E5
:102E0000F80EE30602E2F90EE306DECFEFFFEE6610
:102E1000F1D7DD52EFD7FF0EE3CFDAFFE552FF0E19
:082E2000E3CFD9FFE5521200D7
:082E2800D9CFE6FFDACFE6FF87
:102E3000E1CFD9FFE2CFDAFF0C0EE12402E3E16833
:102E4000E652E16ED950FA0FE96EFF0EDA20EA6E13
:102E5000010EEECFDBFF020EEECFDBFF030EEECF57
:102E6000DBFF040EEECFDBFF63D8D950010FE96E14
:102E7000000EDA20EA6EEECFE6FFEECFE6FFEECFF1
:102E8000E6FFEFCFE6FFA6EC17F0006E060EE15C62
:102E900002E2E16AE552E16E0050DF6E850EDF145A
:102EA00004E04DD8EE6AED6A23D0090EDBCF00F0C6
:102EB0000A0EDBCF01F0820E0026FF0E01223FD862
:102EC00000C0EEFF01C0EDFF7E0EF36E090EF3CFE2
:102ED000DBFF0A0EDB6AD950010FE66E000EDA2026
:102EE000E66E26D834EC18F0E552E552E552E5528C
:102EF000010EDBCF00F0020EDBCF01F0030EDBCFC3
:102F000002F0040EDBCF03F000C028F001C029F06E
:102F100002C02AF003C02BF00C0EE15C02E2E16A71
:102F2000E552E16EE552E5CFDAFFE7CFD9FF1200B7
:102F3000D950050FE66E000EDA20E66E1200F80E8C
:0C2F4000DBCFE9FFF90EDBCFEAFF120047
:042F4C00D9CFE6FFF4
:102F5000DACFE6FFE1CFD9FFE2CFDAFFE652006831
:102F600001687F0E026E036AD950FA0FE96EFF0EF8
:102F7000DA20EA6EEE500016EE500116EE50021600
:102F8000EE5003166AD800C0EEFF01C0EEFF02C08B
:102F9000EEFF03C0EEFFFD0EDB50800B02E0010EE2
:102FA00001D0000EE66E59D8060EE926000EEA2280
:102FB000E552E750EF6EFC0EDBCF00F0FD0EDBCFED
:102FC00001F0D89000360136FC0E00C0DBFFFD0E8C
:102FD00001C0DBFFDB50E66E40D8040EE926000E90
:102FE000EA22E552E750EE6EED6AFD0EDB50006E10
:102FF000016AFF0E001818E1015016E12ED8EECF3D
:1030000000F0EECF01F0EECF02F0EFCF03F0005072
:1030100001100210031006E0210E00016A6F6B6BB5
:10302000800E0BD0040E09D0FD0EDB5008E115D840
:10303000EE6AEE6AEE6AEE6A010EDF6E06D0020EEE
:10304000DF6E0BD8EE52EE52EE8EDF50E552E552B7
:10305000E5CFDAFFE7CFD9FF1200F80EDBCFE9FFAB
:08306000F90EDBCFEAFF1200BC
:08306800D9CFE6FFDACFE6FF45
:10307000E1CFD9FFE2CFDAFF5BD8013411E2005093
:10308000FE08000E01540CE276D805E06CD8800EE4
:10309000EE6EEE6847D067D8800EEE6E7F0E0ED0D3
:1030A00047D8D890015004E6010E005C000E01588C
:1030B0000BE261D805E057D8EE6A800EEE6E32D092
:1030C00052D8EE6AEE6A2ED047D8EECF00F0EECF9F
:1030D00001F0EECF02F0EFCF03F032D800C0EEFFE8
:1030E00001C0EEFF02C0EEFF03C0EEFF21D800508A
:1030F000010B05E025D8020E3AD8EF8E04D020D877
:10310000020E35D8EF9E14D8D8900132003218D86C
:10311000030E2DD800C0EFFF1AD804E011D8030E1B
:1031200026D8EF8EE552E5CFDAFFE7CFD9FF1200C0
:1031300013D8040E1CD8EECF00F0EFCF01F0120030
:10314000FA0EDBCFE9FFFB0EDBCFEAFF120004D85B
:10315000060E0DD8EF501200FC0EDBCFE9FFFD0E7E
:10316000DBCFEAFF1200ECDFEE6AEE6A1200E9261E
:10317000000EEA221200220E00016A6F6B6BA7EFAD
:0231800018F045
:0E3182002A0EF66E080EF76E000EF86E0001B3
:103190000900F550656F0900F550666F03E165673A
:1031A00001D03DD00900F550606F0900F550616F06
:1031B0000900F550626F09000900F550E96E090039
:1031C000F550EA6E090009000900F550636F090027
:1031D000F550646F09000900F6CF67F0F7CF68F08B
:1031E000F8CF69F060C0F6FF61C0F7FF62C0F8FF7A
:1031F0000001635302E1645307E00900F550EE6EED
:103200006307F8E26407F9D767C0F6FF68C0F7FF05
:1032100069C0F8FF00016507000E665BBFD71200AA
:10322000D9CFE6FFDACFE6FFE1CFD9FFE2CFDAFF71
:10323000E150FA0FE96EFF0EE220EA6EEECFE6FFF4
:10324000EECFE6FFEECFE6FFEFCFE6FF2CEC13F07C
:10325000E552E552E552E55228C004F029C005F0D8
:103260002AC006F02BC007F0D90E2E6E5B0E2F6E13
:10327000DE0E306E3E0E316E28C029F005C02AF0F9
:1032800006C02BF007C02CF06CEC11F029C000F048
:103290002AC001F02BC002F02CC003F029C028F096
:1032A0002AC029F02BC02AF02CC02BF0E552E5CF24
:0832B000DAFFE7CFD9FF12009D
:0832B800D9CFE6FFDACFE6FFF3
:1032C000E1CFD9FFE2CFDAFFAC6AAB6AFD0EDBB02B
:1032D000AC88DBA202D0AC8CAB8CDBB4AC8EDBA6B2
:1032E00002D0AB8801D0AB8ADBB8AC849E98DBBA45
:1032F000AB86DBAC02D09D8A01D09D9A9E9ADBAE54
:1033000002D09D8801D09D98FB0EDB50AF6EFB0E66
:10331000FC0EDBCF01F001C000F0016A0050B06E7E
:10332000AC8AAB8E949C948EAC50100B04E0AC50E5
:10333000800B01E1948CE552E5CFDAFFE7CFD9FFAE
:02334000120079
:0E33420028502D02F3CF24F0F4CF25F02E02F8
:10335000F3502526000EF420266E28502F02F3503D
:103360002626000EF420276E28503002F350272620
:1033700029502D02F3502526F4502622000E272234
:1033800029502E02F3502626F450272229502F02CE
:10339000F35027262A502D02F3502626F4502722D8
:1033A0002A502E02F35027262B502D02F3502726A9
:0233B000120009
:0E33B200D9CFE6FFDACFE6FFE1CFD9FFE2CFB9
:1033C000DAFFACA2FED7FB0EDBCFF6FFFC0EDBCFA5
:1033D000F7FFFD0EDBCFF8FF0800F550E66E48EC76
:1033E0001AF0E552D950FB0FE96EFF0EDA20EA6EB3
:1033F000EFCFF6FFEE2AEFCFF7FF000EEE22EFCF72
:10340000F8FFEE220800F550DCE1E552E5CFDAFFE7
:06341000E7CFD9FF120016
:0A341600D9CFE6FFDACFE6FFE1CFE1
:10342000D9FFE2CFDAFFACA2FED7FC0EDBCFE9FF7B
:10343000FD0EDBCFEAFFEF50E66E48EC1AF0E552E6
:10344000FC0EDBCFE9FFDB2AFD0EDBCFEAFF01E359
:10345000DB2AEF50E8E1E552E5CFDAFFE7CFD9FF0D
:02346000120058
:0E346200FF0EE350396EEF0E01D0F30EE76E51
:10347000E72E38EF1AF00C0E386EE76AE72E3EEFB3
:103480001AF0382E3DEF1AF0392E36EF1AF01200EE
:10349000D9CFE6FFDACFE6FFE1CFD9FFE2CFDAFFFF
:1034A000ACAC04D0AC9000016CB3AC80FD0EDB5032
:0E34B000AD6EE552E5CFDAFFE7CFD9FF12008F
:0234BE00000EFE
:1034C000F36E00EE00F0040E01D81200EA6002D0A4
:0E34D000EE6AFCD7F350E9601200EE6AFCD7FA
:0234DE0013EEEB
:1034E00000F023EE00F0F86A339CC1EC18F099EC80
:0A34F0001AF01AEC0EF0FBD71200E0
:0634FA00FF0EE350396EE5
:103500001B0E00D001D0200EE76EE72EFED7392E1D
:06351000FAD700D0120002
:0A35160025000A0D004600657272E0
:103520006F72005374617274696E672E2E2E002EB6
:01353000009A
:02353200120085
:00000001FF
